{
  "contractName": "product",
  "abi": [
    {
      "inputs": [
        {
          "internalType": "bytes32",
          "name": "",
          "type": "bytes32"
        }
      ],
      "name": "users",
      "outputs": [
        {
          "internalType": "bool",
          "name": "",
          "type": "bool"
        }
      ],
      "stateMutability": "view",
      "type": "function",
      "constant": true
    },
    {
      "inputs": [
        {
          "internalType": "bytes32",
          "name": "",
          "type": "bytes32"
        }
      ],
      "name": "vProducts",
      "outputs": [
        {
          "internalType": "bool",
          "name": "",
          "type": "bool"
        }
      ],
      "stateMutability": "view",
      "type": "function",
      "constant": true
    },
    {
      "inputs": [
        {
          "internalType": "bytes32",
          "name": "username",
          "type": "bytes32"
        },
        {
          "internalType": "bytes32",
          "name": "password",
          "type": "bytes32"
        }
      ],
      "name": "addUser",
      "outputs": [],
      "stateMutability": "nonpayable",
      "type": "function"
    },
    {
      "inputs": [
        {
          "internalType": "bytes32",
          "name": "username",
          "type": "bytes32"
        },
        {
          "internalType": "bytes32",
          "name": "password",
          "type": "bytes32"
        }
      ],
      "name": "loginUser",
      "outputs": [
        {
          "internalType": "bool",
          "name": "",
          "type": "bool"
        }
      ],
      "stateMutability": "view",
      "type": "function",
      "constant": true
    },
    {
      "inputs": [
        {
          "internalType": "bytes32",
          "name": "productId",
          "type": "bytes32"
        },
        {
          "internalType": "bytes32",
          "name": "pOwner",
          "type": "bytes32"
        }
      ],
      "name": "setProduct",
      "outputs": [],
      "stateMutability": "nonpayable",
      "type": "function"
    },
    {
      "inputs": [],
      "name": "viewProducts",
      "outputs": [
        {
          "internalType": "bytes32[]",
          "name": "",
          "type": "bytes32[]"
        },
        {
          "internalType": "bytes32[]",
          "name": "",
          "type": "bytes32[]"
        },
        {
          "internalType": "bytes32[]",
          "name": "",
          "type": "bytes32[]"
        }
      ],
      "stateMutability": "view",
      "type": "function",
      "constant": true
    },
    {
      "inputs": [
        {
          "internalType": "bytes32",
          "name": "sProductId",
          "type": "bytes32"
        }
      ],
      "name": "sellProduct",
      "outputs": [],
      "stateMutability": "nonpayable",
      "type": "function"
    },
    {
      "inputs": [
        {
          "internalType": "bytes32",
          "name": "vProductId",
          "type": "bytes32"
        }
      ],
      "name": "verifyFakeness",
      "outputs": [
        {
          "internalType": "bytes32",
          "name": "",
          "type": "bytes32"
        },
        {
          "internalType": "bytes32",
          "name": "",
          "type": "bytes32"
        },
        {
          "internalType": "bytes32",
          "name": "",
          "type": "bytes32"
        }
      ],
      "stateMutability": "view",
      "type": "function",
      "constant": true
    }
  ],
  "bytecode": "0x608060405234801561001057600080fd5b50610b77806100206000396000f3fe608060405234801561001057600080fd5b50600436106100885760003560e01c806375d7b0271161005b57806375d7b02714610127578063cea6ab9814610157578063eb55f56c14610187578063f9f24da1146101a357610088565b806301c2d2f21461008d5780631af8ecc9146100a957806328b6b994146100db5780636158b5751461010b575b600080fd5b6100a760048036038101906100a2919061089e565b6101c3565b005b6100c360048036038101906100be919061089e565b6102b5565b6040516100d2939291906108da565b60405180910390f35b6100f560048036038101906100f09190610911565b6104a5565b604051610102919061096c565b60405180910390f35b61012560048036038101906101209190610911565b610577565b005b610141600480360381019061013c919061089e565b61066a565b60405161014e919061096c565b60405180910390f35b610171600480360381019061016c919061089e565b61068a565b60405161017e919061096c565b60405180910390f35b6101a1600480360381019061019c9190610911565b6106aa565b005b6101ab610757565b6040516101ba93929190610a45565b60405180910390f35b6000806000808080549050111561022357600091505b6000805490508210156102225783600083815481106101fb576101fa610a91565b5b90600052602060002001540361020f578190505b818061021a90610af9565b9250506101d9565b5b6002818154811061023757610236610a91565b5b906000526020600020015492507f417661696c61626c65000000000000000000000000000000000000000000000083036102af577f4e41000000000000000000000000000000000000000000000000000000000000600282815481106102a05761029f610a91565b5b90600052602060002001819055505b50505050565b600080600080600090506000806000905060008080549050111561032657600091505b6000805490508210156103255786600083815481106102fa576102f9610a91565b5b90600052602060002001540361031257819050600192505b818061031d90610af9565b9250506102d8565b5b6001151583151503610451577f417661696c61626c6500000000000000000000000000000000000000000000006002828154811061036757610366610a91565b5b9060005260206000200154036103e4576000818154811061038b5761038a610a91565b5b9060005260206000200154600182815481106103aa576103a9610a91565b5b90600052602060002001547f4f726967696e616c00000000000000000000000000000000000000000000000095509550955050505061049e565b600081815481106103f8576103f7610a91565b5b90600052602060002001546001828154811061041757610416610a91565b5b90600052602060002001547f46616b650000000000000000000000000000000000000000000000000000000095509550955050505061049e565b7f4e41000000000000000000000000000000000000000000000000000000000000807f46616b65000000000000000000000000000000000000000000000000000000009550955095505050505b9193909250565b600080600080600380549050111561056a57600091505b6003805490508210156105055784600383815481106104de576104dd610a91565b5b9060005260206000200154036104f2578190505b81806104fd90610af9565b9250506104bc565b836004828154811061051a57610519610a91565b5b906000526020600020015414801561054f5750846003828154811061054257610541610a91565b5b9060005260206000200154145b1561055f57600192505050610571565b600092505050610571565b6000925050505b92915050565b6005600083815260200190815260200160002060009054906101000a900460ff16156105a257600080fd5b60016005600084815260200190815260200160002060006101000a81548160ff02191690831515021790555060008290806001815401808255809150506001900390600052602060002001600090919091909150556001819080600181540180825580915050600190039060005260206000200160009091909190915055600280600181540180825580915050600190039060005260206000200160007f417661696c61626c6500000000000000000000000000000000000000000000009091909150555050565b60056020528060005260406000206000915054906101000a900460ff1681565b60066020528060005260406000206000915054906101000a900460ff1681565b6006600083815260200190815260200160002060009054906101000a900460ff16156106d557600080fd5b60016006600084815260200190815260200160002060006101000a81548160ff021916908315150217905550600382908060018154018082558091505060019003906000526020600020016000909190919091505560048190806001815401808255809150506001900390600052602060002001600090919091909150555050565b6060806060600060016002828054806020026020016040519081016040528092919081815260200182805480156107ad57602002820191906000526020600020905b815481526020019060010190808311610799575b50505050509250818054806020026020016040519081016040528092919081815260200182805480156107ff57602002820191906000526020600020905b8154815260200190600101908083116107eb575b505050505091508080548060200260200160405190810160405280929190818152602001828054801561085157602002820191906000526020600020905b81548152602001906001019080831161083d575b50505050509050925092509250909192565b600080fd5b6000819050919050565b61087b81610868565b811461088657600080fd5b50565b60008135905061089881610872565b92915050565b6000602082840312156108b4576108b3610863565b5b60006108c284828501610889565b91505092915050565b6108d481610868565b82525050565b60006060820190506108ef60008301866108cb565b6108fc60208301856108cb565b61090960408301846108cb565b949350505050565b6000806040838503121561092857610927610863565b5b600061093685828601610889565b925050602061094785828601610889565b9150509250929050565b60008115159050919050565b61096681610951565b82525050565b6000602082019050610981600083018461095d565b92915050565b600081519050919050565b600082825260208201905092915050565b6000819050602082019050919050565b6109bc81610868565b82525050565b60006109ce83836109b3565b60208301905092915050565b6000602082019050919050565b60006109f282610987565b6109fc8185610992565b9350610a07836109a3565b8060005b83811015610a38578151610a1f88826109c2565b9750610a2a836109da565b925050600181019050610a0b565b5085935050505092915050565b60006060820190508181036000830152610a5f81866109e7565b90508181036020830152610a7381856109e7565b90508181036040830152610a8781846109e7565b9050949350505050565b7f4e487b7100000000000000000000000000000000000000000000000000000000600052603260045260246000fd5b7f4e487b7100000000000000000000000000000000000000000000000000000000600052601160045260246000fd5b6000819050919050565b6000610b0482610aef565b91507fffffffffffffffffffffffffffffffffffffffffffffffffffffffffffffffff8203610b3657610b35610ac0565b5b60018201905091905056fea2646970667358221220298f2627ca95f496e2d320c1533993cc0eda33a7100778db7cba9013cff6a54f64736f6c634300080f0033",
  "immutableReferences": {},
  "source": "// SPDX-License-Identifier: UNLICENSED\r\npragma solidity ^0.8.12;\r\n\r\ncontract product {\r\n\r\n    bytes32[] products;\r\n    bytes32[] owners;\r\n    bytes32[] pStatus;\r\n\r\n    bytes32[] _usernames;\r\n    bytes32[] _passwords;\r\n\r\n    mapping(bytes32 => bool) public vProducts;\r\n    mapping(bytes32 => bool) public users;\r\n\r\n    function addUser(bytes32 username,bytes32 password) public {\r\n      require(!users[username]);\r\n      users[username]=true;\r\n\r\n      _usernames.push(username);\r\n      _passwords.push(password);\r\n    }\r\n\r\n    function loginUser(bytes32 username,bytes32 password) public view returns(bool) {\r\n      uint i;\r\n\t\t  uint j=0;\r\n\r\n\t\t  if(_usernames.length>0) {\r\n\t\t\t  for(i=0;i<_usernames.length;i++) {\r\n\t\t\t\t  if((_usernames[i])==(username)) {\r\n\t\t\t\t\t  j=i;\r\n\t\t\t\t  }\r\n\t\t\t  }\r\n\t\t\r\n\t\t\t  if(_passwords[j]==password && _usernames[j]==username) {\r\n\t\t\t\t  return true;\r\n\t\t\t  }\r\n\t\t\t  else {\r\n\t\t\t\t  return false;\r\n\t\t\t  }\r\n\t\t  } else {\r\n        return false;\r\n      }\r\n    }\r\n\r\n    function setProduct(bytes32 productId,bytes32 pOwner) public{\r\n\r\n        require(!vProducts[productId]);\r\n        vProducts[productId] = true;\r\n\r\n        products.push(productId);\r\n        owners.push(pOwner);\r\n        pStatus.push(\"Available\");\r\n                \r\n    }\r\n\r\n    function viewProducts () public view returns(bytes32[] memory, bytes32[] memory,bytes32[] memory) {\r\n        return(products,owners,pStatus);\r\n    }\r\n\r\n    function sellProduct (bytes32 sProductId) public {\r\n        bytes32 status;\r\n        uint i;\r\n        uint j=0;\r\n\r\n        if(products.length>0) {\r\n            for(i=0;i<products.length;i++) {\r\n                if(products[i]==sProductId) {\r\n                    j=i;\r\n                }\r\n            }\r\n        }\r\n\r\n        status=pStatus[j];\r\n        if(status==\"Available\") {\r\n            pStatus[j]=\"NA\";\r\n        }\r\n    }\r\n\r\n    function verifyFakeness(bytes32 vProductId) public view returns(bytes32,bytes32,bytes32) {\r\n\r\n        bool status=false;\r\n        uint i;\r\n        uint j=0;\r\n\r\n        if(products.length>0) {\r\n            for(i=0;i<products.length;i++) {\r\n                if(products[i]==vProductId) {\r\n                    j=i;\r\n                    status=true;\r\n                }\r\n            }\r\n        }\r\n\r\n        if(status==true) {\r\n                if(pStatus[j]==\"Available\")\r\n                    return(products[j],owners[j],\"Original\");\r\n                else \r\n                    return (products[j],owners[j],\"Fake\");\r\n        } else {\r\n                return(\"NA\",\"NA\",\"Fake\");\r\n        }\r\n\r\n    }\r\n}\r\n\r\n",
  "sourcePath": "E:\\MyProject\\contracts\\product.sol",
  "compiler": {
    "name": "solc",
    "version": "0.8.15+commit.e14f2714.Emscripten.clang"
  },
  "schemaVersion": "3.4.12",
  "updatedAt": "2023-05-01T11:01:41.643Z",
  "networkType": "ethereum",
  "devdoc": {
    "kind": "dev",
    "methods": {},
    "version": 1
  },
  "userdoc": {
    "kind": "user",
    "methods": {},
    "version": 1
  }
}